:100000000C942A000C9447000C9447000C94470071
:100010000C9447000C9447000C9447000C94BC06C9
:100020000C9447000C9489060C9447000C944700EC
:100030000C9447000C9447000C9447000C94470024
:100040000C9447000C9447000C9447000C94470014
:100050000C94470011241FBECFE5D8E0DEBFCDBF12
:1000600010E0A0E6B0E0E6E4F5E202C005900D92F3
:10007000A637B107D9F710E0A6E7B0E001C01D929E
:10008000A937B107E1F70E94460D0C94A1120C9418
:100090000000EF92FF920F931F937B018C0120E0F1
:1000A00030E040E05FE40E94490388238CF0C801FF
:1000B000B70120E030E040E05FE40E94C1010E940F
:1000C000A9039B01AC01205030404040504806C07D
:1000D000C801B7010E94A9039B01AC01B901CA0183
:1000E0001F910F91FF90EF900895A0E0B0E0EBE733
:1000F000F0E00C946A12DC012B01FA019C91923021
:1001000008F439C1EB018881823008F433C194309E
:1001100069F4843009F02FC111969C91119789815F
:10012000981709F428C1A0E6B0E025C1843009F48D
:1001300021C18230A9F4923009F01DC19A01AD01AC
:1001400088E0EA010990AE01E90109929E0181501F
:10015000C1F7E201898111969C918923818308C1AD
:10016000923009F407C112962D903C901397EB0141
:100170008A819B811496AD90BD90CD90DC901797AD
:10018000EC80FD800E811F819101281B390BB90184
:1001900037FF04C066277727621B730B6032710537
:1001A0000CF061C0121613066CF537014801062EDB
:1001B00004C096948794779467940A94D2F721E0C8
:1001C00030E040E050E004C0220F331F441F551FB1
:1001D0006A95D2F721503040404050402E213F21B7
:1001E00040235123211531054105510521F021E01E
:1001F00030E040E050E079018A01E628F72808293C
:1002000019293CC0232BD1F1260E371E350146019A
:10021000062E04C096948794779467940A94D2F734
:1002200021E030E040E050E004C0220F331F441FC3
:10023000551F6A95D2F721503040404050402A2146
:100240003B214C215D21211531054105510521F04E
:1002500021E030E040E050E059016A01A628B728CB
:10026000C828D9280BC0821593052CF01C01AA249C
:10027000BB24650103C0EE24FF24870111969C91E5
:10028000D20111968C91981709F445C0992339F041
:10029000A80197012A193B094C095D0906C0A6016E
:1002A00095012E193F09400B510B57FD08C01182D3
:1002B0003382228224833583468357831DC081E0A5
:1002C00081833382228288279927DC01821B930B4A
:1002D000A40BB50B84839583A683B7830DC0220F2F
:1002E000331F441F551F24833583468357838281E0
:1002F000938101979383828324813581468157813D
:10030000DA01C9010197A109B1098F5F9F4FAF4F72
:10031000BF4328F30BC0918333822282EA0CFB1C7B
:100320000C1D1D1DE482F5820683178383E0808304
:10033000248135814681578157FF1AC0C901AA27F8
:1003400097FDA095BA2F81709070A070B0705695EF
:10035000479537952795822B932BA42BB52B848318
:100360009583A683B7838281938101969383828349
:10037000DF0101C0D201CD01CDB7DEB7E2E10C94BF
:100380008612A0E2B0E0E7ECF1E00C94761269830B
:100390007A838B839C832D833E834F835887E9E048
:1003A000EE2EF12CEC0EFD1ECE010196B7010E943F
:1003B000D2048E010F5E1F4FCE010596B8010E9438
:1003C000D2048A8991E089278A8BC701B801AE01DE
:1003D000475E5F4F0E9475000E94FD03A096E6E015
:1003E0000C949212A0E2B0E0E8EFF1E00C947612E7
:1003F00069837A838B839C832D833E834F835887C5
:10040000F9E0EF2EF12CEC0EFD1ECE010196B701A6
:100410000E94D2048E010F5E1F4FCE010596B801D7
:100420000E94D204C701B801AE01475E5F4F0E942F
:1004300075000E94FD03A096E6E00C949212A0E2E3
:10044000B0E0E5E2F2E00C946A1269837A838B8370
:100450009C832D833E834F835887CE010196BE0136
:10046000675F7F4F0E94D204CE010596BE016F5E8A
:100470007F4F0E94D2049985923088F0898982301A
:10048000C8F0943019F4823051F404C0843029F457
:10049000923081F480E690E0C6C0923049F420E0CA
:1004A0009A858A89981321E02A87CE010996BBC0D4
:1004B000823049F420E09A858A89981321E02A8BBA
:1004C000CE014196B0C02D843E844F8458886D88FB
:1004D0007E888F88988CEE24FF248701AA24BB2471
:1004E000650140E050E060E070E0E0E0F0E0C10174
:1004F00081709070892BE9F0E60CF71C081D191D1E
:100500009A01AB012A0D3B1D4C1D5D1D80E090E062
:10051000A0E0B0E0E614F7040805190520F481E036
:1005200090E0A0E0B0E0BA01A901480F591F6A1F8E
:100530007B1FAA0CBB1CCC1CDD1C97FE08C081E0F5
:1005400090E0A0E0B0E0A82AB92ACA2ADB2A3196B6
:10055000E032F10549F0660C771C881C991C569412
:10056000479437942794C3CFFA85EA892B893C892D
:100570008B859C85280F391F2E5F3F4F17C0CA01FE
:1005800081709070892B61F016950795F794E79428
:1005900080E090E0A0E0B0E8E82AF92A0A2B1B2BC3
:1005A00076956795579547952F5F3F4F77FDE7CF36
:1005B0000CC0440F551F661F771F17FD4160EE0CDE
:1005C000FF1C001F111F21503040403090E05907A0
:1005D00090E0690790E4790760F32B8F3C8FDB0193
:1005E000CA018F779070A070B07080349105A1051A
:1005F000B10561F447FD0AC0E114F10401051105DC
:1006000029F0405C5F4F6F4F7F4F40781A8EFE1786
:1006100011F081E08A8F4D8F5E8F6F8F78A383E01A
:10062000898FCE0149960E94FD03A096E2E10C94C9
:100630008612A8E1B0E0EFE1F3E00C947612698352
:100640007A838B839C832D833E834F83588789E0F5
:10065000E82EF12CEC0EFD1ECE010196B7010E9492
:10066000D2048E010F5E1F4FCE010596B8010E9485
:10067000D2048985823040F08989823028F0C70110
:10068000B8010E944A0501C08FEF6896E6E00C941D
:100690009212A8E1B0E0EFE4F3E00C9476126983E3
:1006A0007A838B839C832D833E834F83588789E095
:1006B000E82EF12CEC0EFD1ECE010196B7010E9432
:1006C000D2048E010F5E1F4FCE010596B8010E9425
:1006D000D2048985823040F08989823028F0C701B0
:1006E000B8010E944A0501C08FEF6896E6E00C94BD
:1006F0009212A8E1B0E0EFE7F3E00C947612698380
:100700007A838B839C832D833E834F83588789E034
:10071000E82EF12CEC0EFD1ECE010196B7010E94D1
:10072000D2048E010F5E1F4FCE010596B8010E94C4
:10073000D2048985823040F08989823028F0C7014F
:10074000B8010E944A0501C081E06896E6E00C9479
:100750009212ACE0B0E0EFEAF3E00C947A12698315
:100760007A838B839C83CE010196BE016B5F7F4FA2
:100770000E94D2048D81823061F1823050F1843048
:1007800021F48E81882351F12EC02F81388537FDC9
:1007900020C06E812F3131051CF06623F9F023C093
:1007A0008EE190E0821B930B29853A854B855C8511
:1007B00004C056954795379527958A95D2F76623B5
:1007C000B1F050954095309521953F4F4F4F5F4F79
:1007D0000EC020E030E040E050E009C02FEF3FEFD6
:1007E0004FEF5FE704C020E030E040E050E8B9019F
:1007F000CA012C96E2E00C949612DF92EF92FF92DF
:100800000F931F93FC01E480F58006811781D1804E
:100810008081823048F480E090E0A0E1B0E0E82AF6
:10082000F92A0A2B1B2BA5C0843009F49FC0823003
:1008300021F4EE24FF24870105C0E114F104010531
:10084000110519F4E0E0F0E096C0628173819FEF3A
:10085000623879070CF05BC022E83FEF261B370BAC
:100860002A3131052CF020E030E040E050E02AC091
:10087000B801A701022E04C0769567955795479554
:100880000A94D2F781E090E0A0E0B0E004C0880FC5
:10089000991FAA1FBB1F2A95D2F70197A109B10979
:1008A0008E219F21A023B1230097A105B10521F03E
:1008B00081E090E0A0E0B0E09A01AB01282B392B59
:1008C0004A2B5B2BDA01C9018F779070A070B07052
:1008D00080349105A105B10539F427FF09C0205CDA
:1008E0003F4F4F4F5F4F04C0215C3F4F4F4F5F4F13
:1008F000E0E0F0E02030A0E03A07A0E04A07A0E402
:100900005A0710F0E1E0F0E079018A0127C0603871
:10091000710564F5FB01E158FF4FD801C7018F77DE
:100920009070A070B07080349105A105B10539F4C4
:10093000E7FE0DC080E490E0A0E0B0E004C08FE3EB
:1009400090E0A0E0B0E0E80EF91E0A1F1B1F17FFA1
:1009500005C016950795F794E794319687E01695AC
:100960000795F794E7948A95D1F705C0EE24FF2404
:100970008701EFEFF0E06E2F679566276795902F60
:100980009F77D794DD24D7948E2F8695492F462BB9
:10099000582F5D29B701CA011F910F91FF90EF9069
:1009A000DF900895FC01DB01408151812281622F9B
:1009B0006F7770E0221F2227221F9381892F880FD3
:1009C000822B282F30E0991F9927991F11969C930D
:1009D000119721153105A9F54115510561057105DD
:1009E00011F482E037C082E89FEF13969C938E93B8
:1009F00012979A01AB0167E0220F331F441F551F66
:100A00006A95D1F783E08C930DC0220F331F441FEA
:100A1000551F12968D919C911397019713969C9355
:100A20008E931297203080E0380780E0480780E4FA
:100A3000580758F314962D933D934D935C93179755
:100A400008952F3F310579F4411551056105710570
:100A500019F484E08C93089564FF03C081E08C93C3
:100A600012C01C9210C02F57304013963C932E9307
:100A7000129783E08C9387E0440F551F661F771F02
:100A80008A95D1F7706414964D935D936D937C9322
:100A9000179708951F93DC01FB019C91923008F495
:100AA00047C08081823008F443C0943051F41196DD
:100AB0001C91843099F58181682F70E0611B710968
:100AC0003FC0843021F0923031F48230B9F181811D
:100AD000882389F12DC011961C9111978230F1F075
:100AE00081811817D9F412962D913C911397828128
:100AF00093818217930794F028173907BCF0149656
:100B00008D919D910D90BC91A02D248135814681C0
:100B10005781281739074A075B0718F4112341F05A
:100B20000AC082179307A407B50740F4112319F0F0
:100B300061E070E005C06FEF7FEF02C060E070E041
:100B4000CB011F910895DF93CF9300D000D0CDB794
:100B5000DEB79C838B831A821982EBE2F0E082E09D
:100B60008083EAE2F0E088E18083A0E4B0E0EB81FA
:100B7000FC819181EB81FC818081982BEB81FC8150
:100B80008281892B80688C93EB81FC8183819481A5
:100B9000A581B681880F991FAA1FBB1F880F991FB7
:100BA000AA1FBB1F880F991FAA1FBB1F9C01AD0165
:100BB00080E092E1AAE7B0E0BC01CD010E944812BA
:100BC000DA01C90101979A838983E0E4F0E0898121
:100BD0009A81892F99278083E9E2F0E089818083D7
:100BE0000F900F900F900F90CF91DF910895DF93AA
:100BF000CF930F92CDB7DEB78983EBE2F0E080812F
:100C0000882F90E0807290700097B9F3ECE2F0E0EA
:100C1000898180830F90CF91DF910895DF93CF93E7
:100C2000CDB7DEB7EBE2F0E080818823DCF7ECE2C1
:100C3000F0E08081CF91DF910895DF93CF9300D0D2
:100C40000F92CDB7DEB79B838A8319820EC089814C
:100C5000282F30E08A819B81FC01E20FF31F808105
:100C60000E94F70589818F5F89838981282F30E071
:100C70008A819B81FC01E20FF31F8081882339F771
:100C80000F900F900F90CF91DF9108950F931F93C6
:100C9000DF93CF9300D00F92CDB7DEB79B838A83CB
:100CA00019828981282F30E08A819B818C01020F73
:100CB000131F0E940E06F80180830FC089818F5F89
:100CC00089838981282F30E08A819B818C01020FE2
:100CD000131F0E940E06F80180838981282F30E0BF
:100CE0008A819B81FC01E20FF31F8081833231F7FF
:100CF0008981282F30E08A819B81FC01E20FF31F5C
:100D000010820F900F900F90CF91DF911F910F9154
:100D100008951F920F920FB60F9211242F933F93B5
:100D20004F935F936F937F938F939F93AF93BF93F3
:100D3000EF93FF93DF93CF93CDB7DEB7809176002B
:100D400090917700009729F0E0917600F09177007C
:100D50000995CF91DF91FF91EF91BF91AF919F9155
:100D60008F917F916F915F914F913F912F910F9054
:100D70000FBE0F901F9018951F920F920FB60F92F3
:100D800011242F933F934F935F936F937F938F9390
:100D90009F93AF93BF93EF93FF93DF93CF93CDB721
:100DA000DEB78091760090917700009729F0E0916E
:100DB0007600F09177000995CF91DF91FF91EF9147
:100DC000BF91AF919F918F917F916F915F914F9163
:100DD0003F912F910F900FBE0F901F901895DF93AA
:100DE000CF9300D0CDB7DEB79A838983ACE4B0E06F
:100DF000E981FA818081918111969C938E93E9819A
:100E0000FA818581882391F4A9E5B0E0E9E5F0E075
:100E1000808184608C93EFE4F0E088E08083AEE42E
:100E2000B0E0E981FA8184818C931EC0AAE4B0E02D
:100E3000E981FA818281938111969C938E93A9E531
:100E4000B0E0E9E5F0E0808180618C93EFE4F0E0D0
:100E500088E08083AEE4B0E0E981FA819481E981A1
:100E6000FA818581892B8C930F900F90CF91DF9120
:100E70000895DF93CF93CDB7DEB7ECE4F0E01182B5
:100E80001082EEE4F0E01082CF91DF910895DF93BD
:100E9000CF9300D0CDB7DEB79A83898389819A81B9
:100EA00090937700809376000F900F90CF91DF9111
:100EB0000895DF93CF9300D000D0CDB7DEB78983FC
:100EC0006A838A81482F50E0CA019C01220F331F98
:100ED000C9019695982F882797958795821B930B24
:100EE000840F951F24E630E0B9010E943412CB0133
:100EF0008A838981282F30E03C832B838B819C81DE
:100F00008130910531F02B813C812230310591F007
:100F100021C0E2E5F0E01082ECE5F0E08A81808318
:100F200081E063E041E00E943808E3E5F0E08AE612
:100F3000808310C0E4E4F0E01082E3E4F0E08A8112
:100F4000808383E067E041E00E943808E5E4F0E058
:100F50008AE680830F900F900F900F90CF91DF91D2
:100F60000895DF93CF9300D0CDB7DEB79A838983FE
:100F7000A0E2B0E0E981FA8181818C93E1E2F0E0C6
:100F80001082A2E2B0E0E981FA818081880F8C931F
:100F9000E6E5F0E084E080830F900F90CF91DF9141
:100FA0000895DF93CF93CDB7DEB7E6E5F0E084EAAE
:100FB0008083E6E5F0E080818823DCF7CF91DF9144
:100FC0000895DF93CF93CDB7DEB7E6E5F0E084E98F
:100FD0008083CF91DF910895DF93CF930F92CDB7A8
:100FE000DEB78983E3E2F0E089818083E6E5F0E023
:100FF00084E88083E6E5F0E080818823DCF70F90C9
:10100000CF91DF910895DF93CF93CDB7DEB7E6E5BB
:10101000F0E084EC8083E6E5F0E080818823DCF773
:10102000E3E2F0E08081CF91DF910895DF93CF93E9
:10103000CDB7DEB7E6E5F0E084E88083E6E5F0E0F2
:1010400080818823DCF7E3E2F0E08081CF91DF91BB
:101050000895DF93CF930F92CDB7DEB7E1E2F0E0D2
:101060008081887F898389810F90CF91DF91089556
:10107000DF93CF9300D000D00F92CDB7DEB7898336
:101080006A834B838A81883008F0D5C08981843097
:1010900008F0D1C08981282F30E03D832C838C81DA
:1010A0009D818130910509F443C02C813D8122301E
:1010B00031052CF48C819D81009771F0BCC02C818E
:1010C0003D812230310509F45FC08C819D818330E0
:1010D000910509F485C0AFC08B818130A1F4AAE3EA
:1010E000B0E0EAE3F0E08081482F8A81282F30E0E9
:1010F00081E090E0022E02C0880F991F0A94E2F767
:10110000842B8C9398C0AAE3B0E0EAE3F0E08081FE
:10111000482F8A81282F30E081E090E0022E02C023
:10112000880F991F0A94E2F7809584238C9383C0DB
:101130008B818130A1F4A7E3B0E0E7E3F0E08081A8
:10114000482F8A81282F30E081E090E0022E02C0F3
:10115000880F991F0A94E2F7842B8C936CC0A7E345
:10116000B0E0E7E3F0E08081482F8A81282F30E06B
:1011700081E090E0022E02C0880F991F0A94E2F7E6
:10118000809584238C9357C08B818130A1F4A4E394
:10119000B0E0E4E3F0E08081482F8A81282F30E03E
:1011A00081E090E0022E02C0880F991F0A94E2F7B6
:1011B000842B8C9340C0A4E3B0E0E4E3F0E08081B2
:1011C000482F8A81282F30E081E090E0022E02C073
:1011D000880F991F0A94E2F7809584238C932BC083
:1011E0008B818130A1F4A1E3B0E0E1E3F0E0808104
:1011F000482F8A81282F30E081E090E0022E02C043
:10120000880F991F0A94E2F7842B8C9314C0A1E3F2
:10121000B0E0E1E3F0E08081482F8A81282F30E0C0
:1012200081E090E0022E02C0880F991F0A94E2F735
:10123000809584238C930F900F900F900F900F90B8
:10124000CF91DF910895DF93CF9300D000D00F921C
:10125000CDB7DEB789836A834B838A81883008F0F3
:10126000D5C08981843008F0D1C08981282F30E031
:101270003D832C838C819D818130910509F443C08D
:101280002C813D81223031052CF48C819D81009789
:1012900071F0BCC02C813D812230310509F45FC062
:1012A0008C819D818330910509F485C0AFC08B810D
:1012B0008130A1F4ABE3B0E0EBE3F0E08081482FB4
:1012C0008A81282F30E081E090E0022E02C0880F52
:1012D000991F0A94E2F7842B8C9398C0ABE3B0E09B
:1012E000EBE3F0E08081482F8A81282F30E081E015
:1012F00090E0022E02C0880F991F0A94E2F78095B1
:1013000084238C9383C08B818130A1F4A8E3B0E067
:10131000E8E3F0E08081482F8A81282F30E081E0E7
:1013200090E0022E02C0880F991F0A94E2F7842BE6
:101330008C936CC0A8E3B0E0E8E3F0E08081482F34
:101340008A81282F30E081E090E0022E02C0880FD1
:10135000991F0A94E2F7809584238C9357C08B8160
:101360008130A1F4A5E3B0E0E5E3F0E08081482F0F
:101370008A81282F30E081E090E0022E02C0880FA1
:10138000991F0A94E2F7842B8C9340C0A5E3B0E048
:10139000E5E3F0E08081482F8A81282F30E081E06A
:1013A00090E0022E02C0880F991F0A94E2F7809500
:1013B00084238C932BC08B818130A1F4A2E3B0E015
:1013C000E2E3F0E08081482F8A81282F30E081E03D
:1013D00090E0022E02C0880F991F0A94E2F7842B36
:1013E0008C9314C0A2E3B0E0E2E3F0E08081482FE8
:1013F0008A81282F30E081E090E0022E02C0880F21
:10140000991F0A94E2F7809584238C930F900F9094
:101410000F900F900F90CF91DF910895DF93CF93AE
:1014200000D000D00F92CDB7DEB78A836B831982CC
:101430008B81883008F084C08A81843008F080C0B5
:101440008A81282F30E03D832C834C815D8141309F
:10145000510579F18C819D818230910534F42C8184
:101460003D812115310569F06BC04C815D814230B1
:101470005105B9F18C819D818330910509F449C0F2
:101480005FC0E9E3F0E08081282F30E08B81882F76
:1014900090E0A90102C0559547958A95E2F7CA01E7
:1014A00081709070882319F081E0898349C0198286
:1014B00047C0E6E3F0E08081282F30E08B81882F61
:1014C00090E0A90102C0559547958A95E2F7CA01B7
:1014D00081709070882319F081E0898331C019826E
:1014E0002FC0E3E3F0E08081282F30E08B81882F4C
:1014F00090E0A90102C0559547958A95E2F7CA0187
:1015000081709070882319F081E0898319C0198255
:1015100017C0E0E3F0E08081282F30E08B81882F36
:1015200090E0A90102C0559547958A95E2F7CA0156
:1015300081709070882319F081E0898301C019823D
:1015400089810F900F900F900F900F90CF91DF91A6
:101550000895DF93CF9300D000D0CDB7DEB7898355
:101560006A838981843090F58981282F30E03C831B
:101570002B838B819C8181309105D1F02B813C8123
:10158000223031052CF48B819C81009761F01EC0C4
:101590002B813C812230310581F08B819C8183300D
:1015A000910581F013C0EAE3F0E08A8180830EC0E8
:1015B000E7E3F0E08A81808309C0E4E3F0E08A8118
:1015C000808304C0E1E3F0E08A8180830F900F9074
:1015D0000F900F90CF91DF910895DF93CF9300D0BC
:1015E00000D0CDB7DEB789836A838981843090F5D6
:1015F0008981282F30E03C832B838B819C81813033
:101600009105D1F02B813C81223031052CF48B8166
:101610009C81009761F01EC02B813C8122303105F6
:1016200081F08B819C818330910581F013C0EBE3C5
:10163000F0E08A8180830EC0E8E3F0E08A81808355
:1016400009C0E5E3F0E08A81808304C0E2E3F0E0D2
:101650008A8180830F900F900F900F90CF91DF9130
:101660000895DF93CF9300D000D0CDB7DEB78A8343
:1016700019828A81843090F58A81282F30E03C835A
:101680002B838B819C8181309105D1F02B813C8112
:10169000223031052CF48B819C81009761F01EC0B3
:1016A0002B813C812230310581F08B819C818330FC
:1016B000910581F013C0E9E3F0E0808189830EC0D9
:1016C000E6E3F0E08081898309C0E3E3F0E0808114
:1016D000898304C0E0E3F0E08081898389810F90F1
:1016E0000F900F900F90CF91DF910895DF93CF93DC
:1016F00000D00F92CDB7DEB789838981282F30E0E3
:101700003B832A838A819B818230910501F12A8162
:101710003B812330310581F18A819B8181309105A4
:1017200009F052C080E061E041E00E94380880E0AA
:1017300062E041E00E94380880E061E040E00E9401
:10174000230980E062E040E00E9423093DC080E080
:1017500063E041E00E94380880E064E041E00E94DC
:10176000380880E063E040E00E94230980E064E004
:1017700040E00E94230928C080E061E041E00E942F
:10178000380880E062E041E00E94380880E063E0D1
:1017900041E00E94380880E064E041E00E9438089F
:1017A00080E061E040E00E94230980E062E040E0E8
:1017B0000E94230980E063E040E00E94230980E06A
:1017C00064E040E00E9423090F900F900F90CF91AA
:1017D000DF910895DF93CF93CDB7DEB729970FB68A
:1017E000F894DEBF0FBECDBF89836A834B838981A6
:1017F0006B810E9459078981282F30E0398728871B
:10180000888599858130910531F028853985223088
:101810003105B1F168C08A81282F30E03F832E83E3
:101820008E819F8181309105A9F02E813F812230E8
:101830003105D9F08E819F81009709F054C080E076
:1018400061E040E00E94230980E062E040E00E9405
:10185000230949C080E061E041E00E94230980E063
:1018600062E040E00E9423093EC080E061E040E089
:101870000E94230980E062E041E00E94230933C016
:101880008A81282F30E03D832C838C819D8181309B
:101890009105A1F02C813D8122303105D1F08C8160
:1018A0009D81009701F580E063E040E00E942309FC
:1018B00080E064E040E00E94230915C080E063E01E
:1018C00041E00E94230980E064E040E00E94230997
:1018D0000AC080E063E040E00E94230980E064E009
:1018E00041E00E94230929960FB6F894DEBF0FBE8F
:1018F000CDBFCF91DF910895DF93CF9300D000D07B
:10190000CDB7DEB79A8389836B830E94D1070E948B
:101910002908883011F01C8228C089819A81807042
:101920009770880F892F881F990B9195806A0E9464
:10193000EC070E942908883111F01C8216C08981A9
:101940000E94EC070E942908883211F01C820DC009
:101950008B810E94EC070E942908883211F01C82BA
:1019600004C00E94E10781E08C838C810F900F906E
:101970000F900F90CF91DF910895DF93CF9300D018
:1019800000D00F92CDB7DEB79A8389837C836B83B7
:101990000E94D1070E942908883011F01D8244C09E
:1019A00089819A8180709770880F892F881F990B81
:1019B0009195806A0E94EC070E942908883111F0F5
:1019C0001D8232C089810E94EC070E94290888325A
:1019D00011F01D8229C00E94D1070E942908803180
:1019E00011F01D8221C089819A8180709770880FC3
:1019F000892F881F990B9195816A0E94EC070E949C
:101A00002908803411F01D820FC00E941608EB8156
:101A1000FC8180830E942908883511F01D8204C052
:101A20000E94E10781E08D838D810F900F900F90D0
:101A30000F900F90CF91DF910895DF93CF93CDB7A3
:101A4000DEB780E063E041E00E94380880E063E0B8
:101A500040E00E942309CF91DF910895DF93CF9357
:101A6000CDB7DEB780E063E041E00E942309CF916B
:101A7000DF910895DF93CF93CDB7DEB780E063E0C9
:101A800040E00E942309CF91DF9108950F931F93A7
:101A9000DF93CF93CDB7DEB7C456D0400FB6F894DE
:101AA000DEBF0FBECDBFCE018B5A9F4FA2969FAF18
:101AB0008EAFA2972EE630E0A4963FAF2EAFA4974C
:101AC00037E0A5963FAFA597A496EEADFFADA497DE
:101AD0000080A4962EAD3FADA4972F5F3F4FA496F4
:101AE0003FAF2EAFA497A296EEADFFADA2970082B6
:101AF000A2962EAD3FADA2972F5F3F4FA2963FAF6C
:101B00002EAFA297A5963FADA5973150A5963FAFB2
:101B1000A597A5968FADA5978823B1F6FE01E45A47
:101B2000FF4F81E08083FE01E45AFF4F82E0818312
:101B3000AFE5B0E0EFE5F0E0808180688C93CE0106
:101B40008B5A9F4F0E94A305CE01845A9F4F0E943B
:101B5000B10781E00E94760B0E941D0D88E292E1A0
:101B60000E9447078FEF90E060E00E947C0CFE012E
:101B7000ED5BFF4F80E090E0A0E7B1E480839183CC
:101B8000A283B3838E01015C1F4FFE01ED5BFF4F0B
:101B9000608171818281938120E030E04AEF54E4DA
:101BA0000E941F02DC01CB01F80180839183A28394
:101BB000B383FE01FF96608171818281938120E071
:101BC00030E040E85FE30E94790388232CF481E051
:101BD00090E09EAF8DAF46C0FE01FF96608171819F
:101BE0008281938120E03FEF4FE757E40E94190381
:101BF000181664F5FE01ED5BFF4F608171818281F3
:101C0000938120E030E040E251E40E941F02DC01B9
:101C1000CB01BC01CD010E944900DC01CB019EAF8C
:101C20008DAF0FC088EC90E09CAF8BAF8BAD9CADBF
:101C30000197F1F79CAF8BAF8DAD9EAD01979EAF35
:101C40008DAF8DAD9EAD009769F716C0FE01FF9672
:101C500060817181828193810E944900DC01CB0106
:101C60009EAF8DAF8DAD9EAD9AAF89AF89AD9AAD68
:101C70000197F1F79AAF89AF0E940E06282F30E046
:101C8000A0963FAF2EAFA097A0968EAD9FADA09728
:101C90008634910509F430C2A096EEADFFADA09751
:101CA000E734F105C4F4A0962EAD3FADA0972234E1
:101CB000310509F448C0A0968EAD9FADA09783343E
:101CC000910509F446C0A096EEADFFADA097E134B2
:101CD000F10599F1D1CFA0962EAD3FADA0972B3451
:101CE000310509F404C3A0968EAD9FADA0978C3446
:101CF000910549F0A096EEADFFADA097E734F10550
:101D000009F4BCC2B9CFFE01EC5AFF4F10829E010C
:101D10002C5A3F4F8FEF90E0B9010E94BD0CFE019D
:101D2000EC5AFF4F8081882321F08DE40E94F70553
:101D3000A3CF8EE40E94F7059FCFCE01875B9F4F14
:101D40000E94881199CFCE01825B9F4F0E9488111B
:101D500093CFFE01E85BFF4F81E08083FE01E95BEA
:101D6000FF4F10822AC0FE01E95BFF4F8081282FC0
:101D700030E0CE01875B9F4FFC01E20FF31F4081F3
:101D8000FE01E95BFF4F8081282F30E0CE01825BAE
:101D90009F4FFC01E20FF31F8081481729F0FE01DD
:101DA000E85BFF4F10820FC0DE01A95BBF4FFE0151
:101DB000E95BFF4F80818F5F8C93FE01E95BFF4FF2
:101DC0008081853080F2FE01E85BFF4F80818823AF
:101DD00009F41CC184E40E94F705FE01E85BFF4F93
:101DE0008FEF90E060810E947C0C80E090E0A0E7A3
:101DF000B1E48DAB9EABAFABB8AF6DA97EA98FA997
:101E000098AD20E030E04AEF54E40E941F02DC016C
:101E1000CB0189AB9AABABABBCAB69A97AA98BA957
:101E20009CA920E030E040E85FE30E94790388232A
:101E30002CF481E090E098AB8FA73FC069A97AA904
:101E40008BA99CA920E03FEF4FE757E40E941903BC
:101E500018164CF56DA97EA98FA998AD20E030E049
:101E600040E251E40E941F02DC01CB01BC01CD0124
:101E70000E944900DC01CB0198AB8FA70FC088EC12
:101E800090E09EA78DA78DA59EA50197F1F79EA72F
:101E90008DA78FA598A9019798AB8FA78FA598A913
:101EA000009769F714C069A97AA98BA99CA90E9417
:101EB0004900DC01CB0198AB8FA78FA598A99CA7FF
:101EC0008BA78BA59CA50197F1F79CA78BA7FE017B
:101ED000E95BFF4F108292C0FE01E95BFF4F8081FA
:101EE000482F50E0FE01E95BFF4F8081282F30E052
:101EF000CE01875B9F4FFC01E20FF31F2081CA01D7
:101F0000622F0E947C0C80E090E0A0E2B1E48FA3FD
:101F100098A7A9A7BAA76FA178A589A59AA520E037
:101F200030E04AEF54E40E941F02DC01CB018BA396
:101F30009CA3ADA3BEA36BA17CA18DA19EA120E01B
:101F400030E040E85FE30E94790388232CF481E0CD
:101F500090E09AA389A33FC06BA17CA18DA19EA113
:101F600020E03FEF4FE757E40E94190318164CF5A5
:101F70006FA178A589A59AA520E030E040E251E460
:101F80000E941F02DC01CB01BC01CD010E9449006F
:101F9000DC01CB019AA389A30FC088EC90E098A341
:101FA0008F8F8F8D98A10197F1F798A38F8F89A1BB
:101FB0009AA101979AA389A389A19AA1009769F789
:101FC00014C06BA17CA18DA19EA10E944900DC01DF
:101FD000CB019AA389A389A19AA19E8F8D8F8D8D04
:101FE0009E8D0197F1F79E8F8D8FDE01A95BBF4F0C
:101FF000FE01E95BFF4F80818F5F8C93FE01E95BFF
:10200000FF4F8081853008F467CF03C085E40E94CC
:10201000F70580E090E0A0E2B1E4898F9A8FAB8F62
:10202000BC8F698D7A8D8B8D9C8D20E030E04AEFDE
:1020300054E40E941F02DC01CB018D8B9E8BAF8B81
:10204000B88F6D897E898F89988D20E030E040E8D7
:102050005FE30E94790388232CF481E090E09C8B5D
:102060008B8B3FC06D897E898F89988D20E03FEFF3
:102070004FE757E40E94190318164CF5698D7A8DC5
:102080008B8D9C8D20E030E040E251E40E941F02E5
:10209000DC01CB01BC01CD010E944900DC01CB0178
:1020A0009C8B8B8B0FC088EC90E09A8B898B8989F5
:1020B0009A890197F1F79A8B898B8B899C89019773
:1020C0009C8B8B8B8B899C89009769F7D5CD6D890B
:1020D0007E898F89988D0E944900DC01CB019C8B01
:1020E0008B8B8B899C89988B8F878F85988901979B
:1020F000F1F7988B8F87C0CDFE01E85BFF4F81E041
:102100008083CE01875B9F4F0E948811FE01E95BAF
:10211000FF4F10829EC0FE01E95BFF4F8081882F38
:1021200090E09E012D5A3F4FB9010E94BD0CFE0167
:10213000E95BFF4F8081282F30E0CE01875B9F4F06
:10214000FC01E20FF31F9081FE01ED5AFF4F8081E9
:10215000981721F0FE01E85BFF4F108280E090E0CD
:10216000A0E2B1E48B879C87AD87BE876B857C85B9
:102170008D859E8520E030E04AEF54E40E941F02E6
:10218000DC01CB018F839887A987BA876F81788517
:1021900089859A8520E030E040E85FE30E9479037A
:1021A00088232CF481E090E09E838D833FC06F8173
:1021B000788589859A8520E03FEF4FE757E40E94B4
:1021C000190318164CF56B857C858D859E8520E05E
:1021D00030E040E251E40E941F02DC01CB01BC016F
:1021E000CD010E944900DC01CB019E838D830FC08D
:1021F00088EC90E09C838B838B819C810197F1F725
:102200009C838B838D819E8101979E838D838D819D
:102210009E81009769F714C06F81788589859A85BA
:102220000E944900DC01CB019E838D838D819E81BC
:102230009A83898389819A810197F1F79A838983A7
:10224000DE01A95BBF4FFE01E95BFF4F80818F5F1D
:102250008C93FE01E95BFF4F8081853008F45BCFF2
:10226000FE01E85BFF4F8081882321F089E40E9412
:10227000F70502CD8AE40E94F705FECC88E690E0DF
:102280000E94EF0681E061E044E60E94EA0B809143
:1022900078008F30E1F7109278000E94390788E6C5
:1022A00090E00E94EF0681E060E040E00E94EA0BCF
:1022B000809178008330E1F7109278000E9439070E
:1022C00088E690E00E94EF0681E062E044E60E942A
:1022D000EA0B809178008F30E1F7109278000E942D
:1022E000390781E060E040E00E94EA0BC5CC88E657
:1022F00090E00E94EF060E942E0D809178008C33B2
:10230000E1F7109278000E9439070E943A0DB4CC90
:102310000F931F93DF93CF93CDB7DEB761970FB6BF
:10232000F894DEBF0FBECDBF998B888B1F8681C00E
:102330008F85282F30E0888999898C01020F131F1F
:102340000E940E06F801808380E090E0A0E7B1E4EF
:102350008B879C87AD87BE876B857C858D859E85A9
:1023600020E030E04AEF54E40E941F02DC01CB0180
:102370008F839887A987BA876F81788589859A85A1
:1023800020E030E040E85FE30E94790388232CF4EA
:1023900081E090E09E838D833FC06F817885898541
:1023A0009A8520E03FEF4FE757E40E941903181683
:1023B0004CF56B857C858D859E8520E030E040E284
:1023C00051E40E941F02DC01CB01BC01CD010E943F
:1023D0004900DC01CB019E838D830FC088EC90E027
:1023E0009C838B838B819C810197F1F79C838B83EA
:1023F0008D819E8101979E838D838D819E81009723
:1024000069F714C06F81788589859A850E94490093
:10241000DC01CB019E838D838D819E819A8389838C
:1024200089819A810197F1F79A8389838F858F5FDC
:102430008F878F85853008F47BCF61960FB6F8942F
:10244000DEBF0FBECDBFCF91DF911F910F910895D9
:10245000DF93CF93CDB7DEB7809178008F5F809305
:102460007800CF91DF910895AA1BBB1B51E107C0F3
:10247000AA1FBB1FA617B70710F0A61BB70B881F14
:10248000991F5A95A9F780959095BC01CD010895A3
:10249000A1E21A2EAA1BBB1BFD010DC0AA1FBB1F68
:1024A000EE1FFF1FA217B307E407F50720F0A21BDA
:1024B000B30BE40BF50B661F771F881F991F1A9447
:1024C00069F760957095809590959B01AC01BD0171
:1024D000CF0108952F923F924F925F926F927F9219
:1024E0008F929F92AF92BF92CF92DF92EF92FF9224
:1024F0000F931F93CF93DF93CDB7DEB7CA1BDB0BD0
:102500000FB6F894DEBF0FBECDBF09942A88398874
:1025100048885F846E847D848C849B84AA84B9847B
:10252000C884DF80EE80FD800C811B81AA81B98187
:10253000CE0FD11D0FB6F894DEBF0FBECDBFED019B
:062540000895F894FFCF9E
:1025460000000000000000000000127A08040600E7
:06255600008025000000DA
:00000001FF
