:100000000C942A000C9447000C9447000C94470071
:100010000C9447000C9447000C9447000C94BC06C9
:100020000C9447000C9489060C9447000C944700EC
:100030000C9447000C9447000C9447000C94470024
:100040000C9447000C9447000C9447000C94470014
:100050000C94470011241FBECFE5D8E0DEBFCDBF12
:1000600011E0A0E6B0E0E8EAF8E302C005900D92E6
:10007000AA37B107D9F711E0AAE7B1E001C01D9294
:10008000A338B107E1F70E940A110C94521C0C949A
:100090000000EF92FF920F931F937B018C0120E0F1
:1000A00030E040E05FE40E94490388238CF0C801FF
:1000B000B70120E030E040E05FE40E94C1010E940F
:1000C000A9039B01AC01205030404040504806C07D
:1000D000C801B7010E94A9039B01AC01B901CA0183
:1000E0001F910F91FF90EF900895A0E0B0E0EBE733
:1000F000F0E00C94D61BDC012B01FA019C919230AC
:1001000008F439C1EB018881823008F433C194309E
:1001100069F4843009F02FC111969C91119789815F
:10012000981709F428C1ADE4B1E025C1843009F481
:1001300021C18230A9F4923009F01DC19A01AD01AC
:1001400088E0EA010990AE01E90109929E0181501F
:10015000C1F7E201898111969C918923818308C1AD
:10016000923009F407C112962D903C901397EB0141
:100170008A819B811496AD90BD90CD90DC901797AD
:10018000EC80FD800E811F819101281B390BB90184
:1001900037FF04C066277727621B730B6032710537
:1001A0000CF061C0121613066CF537014801062EDB
:1001B00004C096948794779467940A94D2F721E0C8
:1001C00030E040E050E004C0220F331F441F551FB1
:1001D0006A95D2F721503040404050402E213F21B7
:1001E00040235123211531054105510521F021E01E
:1001F00030E040E050E079018A01E628F72808293C
:1002000019293CC0232BD1F1260E371E350146019A
:10021000062E04C096948794779467940A94D2F734
:1002200021E030E040E050E004C0220F331F441FC3
:10023000551F6A95D2F721503040404050402A2146
:100240003B214C215D21211531054105510521F04E
:1002500021E030E040E050E059016A01A628B728CB
:10026000C828D9280BC0821593052CF01C01AA249C
:10027000BB24650103C0EE24FF24870111969C91E5
:10028000D20111968C91981709F445C0992339F041
:10029000A80197012A193B094C095D0906C0A6016E
:1002A00095012E193F09400B510B57FD08C01182D3
:1002B0003382228224833583468357831DC081E0A5
:1002C00081833382228288279927DC01821B930B4A
:1002D000A40BB50B84839583A683B7830DC0220F2F
:1002E000331F441F551F24833583468357838281E0
:1002F000938101979383828324813581468157813D
:10030000DA01C9010197A109B1098F5F9F4FAF4F72
:10031000BF4328F30BC0918333822282EA0CFB1C7B
:100320000C1D1D1DE482F5820683178383E0808304
:10033000248135814681578157FF1AC0C901AA27F8
:1003400097FDA095BA2F81709070A070B0705695EF
:10035000479537952795822B932BA42BB52B848318
:100360009583A683B7838281938101969383828349
:10037000DF0101C0D201CD01CDB7DEB7E2E10C94BF
:10038000F21BA0E2B0E0E7ECF1E00C94E21B698321
:100390007A838B839C832D833E834F835887E9E048
:1003A000EE2EF12CEC0EFD1ECE010196B7010E943F
:1003B000D2048E010F5E1F4FCE010596B8010E9438
:1003C000D2048A8991E089278A8BC701B801AE01DE
:1003D000475E5F4F0E9475000E94FD03A096E6E015
:1003E0000C94FE1BA0E2B0E0E8EFF1E00C94E21BFD
:1003F00069837A838B839C832D833E834F835887C5
:10040000F9E0EF2EF12CEC0EFD1ECE010196B701A6
:100410000E94D2048E010F5E1F4FCE010596B801D7
:100420000E94D204C701B801AE01475E5F4F0E942F
:1004300075000E94FD03A096E6E00C94FE1BA0E26E
:10044000B0E0E5E2F2E00C94D61B69837A838B83FB
:100450009C832D833E834F835887CE010196BE0136
:10046000675F7F4F0E94D204CE010596BE016F5E8A
:100470007F4F0E94D2049985923088F0898982301A
:10048000C8F0943019F4823051F404C0843029F457
:10049000923081F48DE491E0C6C0923049F420E0BE
:1004A0009A858A89981321E02A87CE010996BBC0D4
:1004B000823049F420E09A858A89981321E02A8BBA
:1004C000CE014196B0C02D843E844F8458886D88FB
:1004D0007E888F88988CEE24FF248701AA24BB2471
:1004E000650140E050E060E070E0E0E0F0E0C10174
:1004F00081709070892BE9F0E60CF71C081D191D1E
:100500009A01AB012A0D3B1D4C1D5D1D80E090E062
:10051000A0E0B0E0E614F7040805190520F481E036
:1005200090E0A0E0B0E0BA01A901480F591F6A1F8E
:100530007B1FAA0CBB1CCC1CDD1C97FE08C081E0F5
:1005400090E0A0E0B0E0A82AB92ACA2ADB2A3196B6
:10055000E032F10549F0660C771C881C991C569412
:10056000479437942794C3CFFA85EA892B893C892D
:100570008B859C85280F391F2E5F3F4F17C0CA01FE
:1005800081709070892B61F016950795F794E79428
:1005900080E090E0A0E0B0E8E82AF92A0A2B1B2BC3
:1005A00076956795579547952F5F3F4F77FDE7CF36
:1005B0000CC0440F551F661F771F17FD4160EE0CDE
:1005C000FF1C001F111F21503040403090E05907A0
:1005D00090E0690790E4790760F32B8F3C8FDB0193
:1005E000CA018F779070A070B07080349105A1051A
:1005F000B10561F447FD0AC0E114F10401051105DC
:1006000029F0405C5F4F6F4F7F4F40781A8EFE1786
:1006100011F081E08A8F4D8F5E8F6F8F78A383E01A
:10062000898FCE0149960E94FD03A096E2E10C94C9
:10063000F21BA8E1B0E0EFE1F3E00C94E21B698368
:100640007A838B839C832D833E834F83588789E0F5
:10065000E82EF12CEC0EFD1ECE010196B7010E9492
:10066000D2048E010F5E1F4FCE010596B8010E9485
:10067000D2048985823040F08989823028F0C70110
:10068000B8010E944A0501C08FEF6896E6E00C941D
:10069000FE1BA8E1B0E0EFE4F3E00C94E21B6983F9
:1006A0007A838B839C832D833E834F83588789E095
:1006B000E82EF12CEC0EFD1ECE010196B7010E9432
:1006C000D2048E010F5E1F4FCE010596B8010E9425
:1006D000D2048985823040F08989823028F0C701B0
:1006E000B8010E944A0501C08FEF6896E6E00C94BD
:1006F000FE1BA8E1B0E0EFE7F3E00C94E21B698396
:100700007A838B839C832D833E834F83588789E034
:10071000E82EF12CEC0EFD1ECE010196B7010E94D1
:10072000D2048E010F5E1F4FCE010596B8010E94C4
:10073000D2048985823040F08989823028F0C7014F
:10074000B8010E944A0501C081E06896E6E00C9479
:10075000FE1BACE0B0E0EFEAF3E00C94E61B69832B
:100760007A838B839C83CE010196BE016B5F7F4FA2
:100770000E94D2048D81823061F1823050F1843048
:1007800021F48E81882351F12EC02F81388537FDC9
:1007900020C06E812F3131051CF06623F9F023C093
:1007A0008EE190E0821B930B29853A854B855C8511
:1007B00004C056954795379527958A95D2F76623B5
:1007C000B1F050954095309521953F4F4F4F5F4F79
:1007D0000EC020E030E040E050E009C02FEF3FEFD6
:1007E0004FEF5FE704C020E030E040E050E8B9019F
:1007F000CA012C96E2E00C94021CDF92EF92FF9269
:100800000F931F93FC01E480F58006811781D1804E
:100810008081823048F480E090E0A0E1B0E0E82AF6
:10082000F92A0A2B1B2BA5C0843009F49FC0823003
:1008300021F4EE24FF24870105C0E114F104010531
:10084000110519F4E0E0F0E096C0628173819FEF3A
:10085000623879070CF05BC022E83FEF261B370BAC
:100860002A3131052CF020E030E040E050E02AC091
:10087000B801A701022E04C0769567955795479554
:100880000A94D2F781E090E0A0E0B0E004C0880FC5
:10089000991FAA1FBB1F2A95D2F70197A109B10979
:1008A0008E219F21A023B1230097A105B10521F03E
:1008B00081E090E0A0E0B0E09A01AB01282B392B59
:1008C0004A2B5B2BDA01C9018F779070A070B07052
:1008D00080349105A105B10539F427FF09C0205CDA
:1008E0003F4F4F4F5F4F04C0215C3F4F4F4F5F4F13
:1008F000E0E0F0E02030A0E03A07A0E04A07A0E402
:100900005A0710F0E1E0F0E079018A0127C0603871
:10091000710564F5FB01E158FF4FD801C7018F77DE
:100920009070A070B07080349105A105B10539F4C4
:10093000E7FE0DC080E490E0A0E0B0E004C08FE3EB
:1009400090E0A0E0B0E0E80EF91E0A1F1B1F17FFA1
:1009500005C016950795F794E794319687E01695AC
:100960000795F794E7948A95D1F705C0EE24FF2404
:100970008701EFEFF0E06E2F679566276795902F60
:100980009F77D794DD24D7948E2F8695492F462BB9
:10099000582F5D29B701CA011F910F91FF90EF9069
:1009A000DF900895FC01DB01408151812281622F9B
:1009B0006F7770E0221F2227221F9381892F880FD3
:1009C000822B282F30E0991F9927991F11969C930D
:1009D000119721153105A9F54115510561057105DD
:1009E00011F482E037C082E89FEF13969C938E93B8
:1009F00012979A01AB0167E0220F331F441F551F66
:100A00006A95D1F783E08C930DC0220F331F441FEA
:100A1000551F12968D919C911397019713969C9355
:100A20008E931297203080E0380780E0480780E4FA
:100A3000580758F314962D933D934D935C93179755
:100A400008952F3F310579F4411551056105710570
:100A500019F484E08C93089564FF03C081E08C93C3
:100A600012C01C9210C02F57304013963C932E9307
:100A7000129783E08C9387E0440F551F661F771F02
:100A80008A95D1F7706414964D935D936D937C9322
:100A9000179708951F93DC01FB019C91923008F495
:100AA00047C08081823008F443C0943051F41196DD
:100AB0001C91843099F58181682F70E0611B710968
:100AC0003FC0843021F0923031F48230B9F181811D
:100AD000882389F12DC011961C9111978230F1F075
:100AE00081811817D9F412962D913C911397828128
:100AF00093818217930794F028173907BCF0149656
:100B00008D919D910D90BC91A02D248135814681C0
:100B10005781281739074A075B0718F4112341F05A
:100B20000AC082179307A407B50740F4112319F0F0
:100B300061E070E005C06FEF7FEF02C060E070E041
:100B4000CB011F910895DF93CF9300D000D0CDB794
:100B5000DEB79C838B831A821982EBE2F0E082E09D
:100B60008083EAE2F0E088E18083A0E4B0E0EB81FA
:100B7000FC819181EB81FC818081982BEB81FC8150
:100B80008281892B80688C93EB81FC8183819481A5
:100B9000A581B681880F991FAA1FBB1F880F991FB7
:100BA000AA1FBB1F880F991FAA1FBB1F9C01AD0165
:100BB00080E092E1AAE7B0E0BC01CD010E94B41B45
:100BC000DA01C90101979A838983E0E4F0E0898121
:100BD0009A81892F99278083E9E2F0E089818083D7
:100BE0000F900F900F900F90CF91DF910895DF93AA
:100BF000CF930F92CDB7DEB78983EBE2F0E080812F
:100C0000882F90E0807290700097B9F3ECE2F0E0EA
:100C1000898180830F90CF91DF910895DF93CF93E7
:100C2000CDB7DEB7EBE2F0E080818823DCF7ECE2C1
:100C3000F0E08081CF91DF910895DF93CF9300D0D2
:100C40000F92CDB7DEB79B838A8319820EC089814C
:100C5000282F30E08A819B81FC01E20FF31F808105
:100C60000E94F70589818F5F89838981282F30E071
:100C70008A819B81FC01E20FF31F8081882339F771
:100C80000F900F900F90CF91DF9108950F931F93C6
:100C9000DF93CF9300D00F92CDB7DEB79B838A83CB
:100CA00019828981282F30E08A819B818C01020F73
:100CB000131F0E940E06F80180830FC089818F5F89
:100CC00089838981282F30E08A819B818C01020FE2
:100CD000131F0E940E06F80180838981282F30E0BF
:100CE0008A819B81FC01E20FF31F8081833231F7FF
:100CF0008981282F30E08A819B81FC01E20FF31F5C
:100D000010820F900F900F90CF91DF911F910F9154
:100D100008951F920F920FB60F9211242F933F93B5
:100D20004F935F936F937F938F939F93AF93BF93F3
:100D3000EF93FF93DF93CF93CDB7DEB780917A0126
:100D400090917B01009729F0E0917A01F0917B016D
:100D50000995CF91DF91FF91EF91BF91AF919F9155
:100D60008F917F916F915F914F913F912F910F9054
:100D70000FBE0F901F9018951F920F920FB60F92F3
:100D800011242F933F934F935F936F937F938F9390
:100D90009F93AF93BF93EF93FF93DF93CF93CDB721
:100DA000DEB780917A0190917B01009729F0E09164
:100DB0007A01F0917B010995CF91DF91FF91EF913D
:100DC000BF91AF919F918F917F916F915F914F9163
:100DD0003F912F910F900FBE0F901F901895DF93AA
:100DE000CF9300D0CDB7DEB79A838983ACE4B0E06F
:100DF000E981FA818081918111969C938E93E9819A
:100E0000FA818581882391F4A9E5B0E0E9E5F0E075
:100E1000808184608C93EFE4F0E088E08083AEE42E
:100E2000B0E0E981FA8184818C931EC0AAE4B0E02D
:100E3000E981FA818281938111969C938E93A9E531
:100E4000B0E0E9E5F0E0808180618C93EFE4F0E0D0
:100E500088E08083AEE4B0E0E981FA819481E981A1
:100E6000FA818581892B8C930F900F90CF91DF9120
:100E70000895DF93CF93CDB7DEB7ECE4F0E01182B5
:100E80001082EEE4F0E01082CF91DF910895DF93BD
:100E9000CF9300D0CDB7DEB79A83898389819A81B9
:100EA00090937B0180937A010F900F90CF91DF9107
:100EB0000895DF93CF9300D000D00F92CDB7DEB767
:100EC00089836A834B838A81883008F0D5C0898101
:100ED000843008F0D1C08981282F30E03D832C83F5
:100EE0008C819D818130910509F443C02C813D8125
:100EF000223031052CF48C819D81009771F0BCC0AB
:100F00002C813D812230310509F45FC08C819D81A7
:100F10008330910509F485C0AFC08B818130A1F485
:100F2000AAE3B0E0EAE3F0E08081482F8A81282F2D
:100F300030E081E090E0022E02C0880F991F0A94F1
:100F4000E2F7842B8C9398C0AAE3B0E0EAE3F0E0E8
:100F50008081482F8A81282F30E081E090E0022EA6
:100F600002C0880F991F0A94E2F7809584238C931E
:100F700083C08B818130A1F4A7E3B0E0E7E3F0E028
:100F80008081482F8A81282F30E081E090E0022E76
:100F900002C0880F991F0A94E2F7842B8C936CC0CF
:100FA000A7E3B0E0E7E3F0E08081482F8A81282FB3
:100FB00030E081E090E0022E02C0880F991F0A9471
:100FC000E2F7809584238C9357C08B818130A1F404
:100FD000A4E3B0E0E4E3F0E08081482F8A81282F89
:100FE00030E081E090E0022E02C0880F991F0A9441
:100FF000E2F7842B8C9340C0A4E3B0E0E4E3F0E09C
:101000008081482F8A81282F30E081E090E0022EF5
:1010100002C0880F991F0A94E2F7809584238C936D
:101020002BC08B818130A1F4A1E3B0E0E1E3F0E0DB
:101030008081482F8A81282F30E081E090E0022EC5
:1010400002C0880F991F0A94E2F7842B8C9314C076
:10105000A1E3B0E0E1E3F0E08081482F8A81282F0E
:1010600030E081E090E0022E02C0880F991F0A94C0
:10107000E2F7809584238C930F900F900F900F9040
:101080000F90CF91DF910895DF93CF9300D000D0E0
:101090000F92CDB7DEB789836A834B838A8188300C
:1010A00008F0D5C08981843008F0D1C08981282F0B
:1010B00030E03D832C838C819D818130910509F442
:1010C00043C02C813D81223031052CF48C819D81DF
:1010D000009771F0BCC02C813D812230310509F4AC
:1010E0005FC08C819D818330910509F485C0AFC0BC
:1010F0008B818130A1F4ABE3B0E0EBE3F0E08081E1
:10110000482F8A81282F30E081E090E0022E02C033
:10111000880F991F0A94E2F7842B8C9398C0ABE355
:10112000B0E0EBE3F0E08081482F8A81282F30E0A7
:1011300081E090E0022E02C0880F991F0A94E2F726
:10114000809584238C9383C08B818130A1F4A8E3A4
:10115000B0E0E8E3F0E08081482F8A81282F30E07A
:1011600081E090E0022E02C0880F991F0A94E2F7F6
:10117000842B8C936CC0A8E3B0E0E8E3F0E08081BE
:10118000482F8A81282F30E081E090E0022E02C0B3
:10119000880F991F0A94E2F7809584238C9357C097
:1011A0008B818130A1F4A5E3B0E0E5E3F0E080813C
:1011B000482F8A81282F30E081E090E0022E02C083
:1011C000880F991F0A94E2F7842B8C9340C0A5E303
:1011D000B0E0E5E3F0E08081482F8A81282F30E0FD
:1011E00081E090E0022E02C0880F991F0A94E2F776
:1011F000809584238C932BC08B818130A1F4A2E352
:10120000B0E0E2E3F0E08081482F8A81282F30E0CF
:1012100081E090E0022E02C0880F991F0A94E2F745
:10122000842B8C9314C0A2E3B0E0E2E3F0E0808171
:10123000482F8A81282F30E081E090E0022E02C002
:10124000880F991F0A94E2F7809584238C930F905E
:101250000F900F900F900F90CF91DF910895DF9333
:10126000CF9300D000D00F92CDB7DEB78A836B83C7
:1012700019828B81883008F084C08A81843008F01C
:1012800080C08A81282F30E03D832C834C815D8192
:101290004130510579F18C819D818230910534F482
:1012A0002C813D812115310569F06BC04C815D8138
:1012B00042305105B9F18C819D818330910509F44B
:1012C00049C05FC0E9E3F0E08081282F30E08B81E6
:1012D000882F90E0A90102C0559547958A95E2F7BD
:1012E000CA0181709070882319F081E0898349C018
:1012F000198247C0E6E3F0E08081282F30E08B813F
:10130000882F90E0A90102C0559547958A95E2F78C
:10131000CA0181709070882319F081E0898331C0FF
:1013200019822FC0E3E3F0E08081282F30E08B8129
:10133000882F90E0A90102C0559547958A95E2F75C
:10134000CA0181709070882319F081E0898319C0E7
:10135000198217C0E0E3F0E08081282F30E08B8114
:10136000882F90E0A90102C0559547958A95E2F72C
:10137000CA0181709070882319F081E0898301C0CF
:10138000198289810F900F900F900F900F90CF913D
:10139000DF910895DF93CF9300D000D0CDB7DEB7B3
:1013A00089836A838981843090F58981282F30E090
:1013B0003C832B838B819C8181309105D1F02B81E3
:1013C0003C81223031052CF48B819C81009761F0A7
:1013D0001EC02B813C812230310581F08B819C81A4
:1013E0008330910581F013C0EAE3F0E08A818083C5
:1013F0000EC0E7E3F0E08A81808309C0E4E3F0E017
:101400008A81808304C0E1E3F0E08A8180830F90C9
:101410000F900F900F90CF91DF910895DF93CF93AE
:1014200000D000D0CDB7DEB789836A83898184304C
:1014300090F58981282F30E03C832B838B819C8120
:1014400081309105D1F02B813C81223031052CF483
:101450008B819C81009761F01EC02B813C812230E2
:10146000310581F08B819C818330910581F013C01F
:10147000EBE3F0E08A8180830EC0E8E3F0E08A814C
:10148000808309C0E5E3F0E08A81808304C0E2E361
:10149000F0E08A8180830F900F900F900F90CF9192
:1014A000DF910895DF93CF9300D000D0CDB7DEB7A2
:1014B0008A8319828A81843090F58A81282F30E0CE
:1014C0003C832B838B819C8181309105D1F02B81D2
:1014D0003C81223031052CF48B819C81009761F096
:1014E0001EC02B813C812230310581F08B819C8193
:1014F0008330910581F013C0E9E3F0E080818983B6
:101500000EC0E6E3F0E08081898309C0E3E3F0E008
:101510008081898304C0E0E3F0E080818983898150
:101520000F900F900F900F90CF91DF910895DF9360
:10153000CF93CDB7DEB72E970FB6F894DEBF0FBEB0
:10154000CDBF82E066E041E00E94590782E067E09B
:1015500041E00E94590780E090E0A0EAB1E48B8767
:101560009C87AD87BE876B857C858D859E8520E0B9
:1015700030E04AEF54E40E941F02DC01CB018F836C
:101580009887A987BA876F81788589859A8520E0B1
:1015900030E040E85FE30E94790388232CF481E087
:1015A00090E09E838D833FC06F81788589859A8581
:1015B00020E03FEF4FE757E40E94190318164CF55F
:1015C0006B857C858D859E8520E030E040E251E48E
:1015D0000E941F02DC01CB01BC01CD010E94490029
:1015E000DC01CB019E838D830FC088EC90E09C834F
:1015F0008B838B819C810197F1F79C838B838D81F9
:101600009E8101979E838D838D819E81009769F7CE
:1016100014C06F81788589859A850E944900DC0114
:10162000CB019E838D838D819E819A83898389815D
:101630009A810197F1F79A83898380E06FEF0E9486
:10164000CA0988E30E94330B8CE00E94330B81E0CF
:101650000E94330B2E960FB6F894DEBF0FBECDBF9F
:10166000CF91DF910895DF93CF93CDB7DEB7E997A0
:101670000FB6F894DEBF0FBECDBF89AF82E066E043
:1016800040E00E94440880E090E0A0E8BFE38DAB1A
:101690009EABAFABB8AF6DA97EA98FA998AD20E086
:1016A00030E04AEF54E40E941F02DC01CB0189AB19
:1016B0009AABABABBCAB69A97AA98BA99CA920E07A
:1016C00030E040E85FE30E94790388232CF481E056
:1016D00090E098AB8FA73FC069A97AA98BA99CA974
:1016E00020E03FEF4FE757E40E94190318164CF52E
:1016F0006DA97EA98FA998AD20E030E040E251E4C9
:101700000E941F02DC01CB01BC01CD010E944900F7
:10171000DC01CB0198AB8FA70FC088EC90E09EA7AF
:101720008DA78DA59EA50197F1F79EA78DA78FA5E3
:1017300098A9019798AB8FA78FA598A9009769F7EB
:1017400014C069A97AA98BA99CA90E944900DC014F
:10175000CB0198AB8FA78FA598A99CA78BA78BA52A
:101760009CA50197F1F79CA78BA782E067E041E079
:101770000E94440880E090E0A0E8BFE38FA398A710
:10178000A9A7BAA76FA178A589A59AA520E030E0FE
:101790004AEF54E40E941F02DC01CB018BA39CA3FF
:1017A000ADA3BEA36BA17CA18DA19EA120E030E0E2
:1017B00040E85FE30E94790388232CF481E090E005
:1017C0009AA389A33FC06BA17CA18DA19EA120E01B
:1017D0003FEF4FE757E40E94190318164CF56FA12D
:1017E00078A589A59AA520E030E040E251E40E9466
:1017F0001F02DC01CB01BC01CD010E944900DC01CC
:10180000CB019AA389A30FC088EC90E098A38F8F97
:101810008F8D98A10197F1F798A38F8F89A19AA135
:1018200001979AA389A389A19AA1009769F714C087
:101830006BA17CA18DA19EA10E944900DC01CB017E
:101840009AA389A389A19AA19E8F8D8F8D8D9E8D3C
:101850000197F1F79E8F8D8F80E069AD0E940E0A8F
:1018600080E090E0A0E8BFE3898F9A8FAB8FBC8FB8
:10187000698D7A8D8B8D9C8D20E030E04AEF54E4A9
:101880000E941F02DC01CB018D8B9E8BAF8BB88F2A
:101890006D897E898F89988D20E030E040E85FE394
:1018A0000E94790388232CF481E090E09C8B8B8B41
:1018B0003FC06D897E898F89988D20E03FEF4FE78B
:1018C00057E40E94190318164CF5698D7A8D8B8D9B
:1018D0009C8D20E030E040E251E40E941F02DC01D8
:1018E000CB01BC01CD010E944900DC01CB019C8BE6
:1018F0008B8B0FC088EC90E09A8B898B89899A89B1
:101900000197F1F79A8B898B8B899C8901979C8B26
:101910008B8B8B899C89009769F714C06D897E89B0
:101920008F89988D0E944900DC01CB019C8B8B8BA9
:101930008B899C89988B8F878F8598890197F1F780
:10194000988B8F8782E067E040E00E94440880E047
:1019500090E0A0E8BFE38B879C87AD87BE876B854F
:101960007C858D859E8520E030E04AEF54E40E941E
:101970001F02DC01CB018F839887A987BA876F810B
:10198000788589859A8520E030E040E85FE30E9411
:10199000790388232CF481E090E09E838D833FC0FF
:1019A0006F81788589859A8520E03FEF4FE757E47E
:1019B0000E94190318164CF56B857C858D859E85D4
:1019C00020E030E040E251E40E941F02DC01CB0144
:1019D000BC01CD010E944900DC01CB019E838D83B7
:1019E0000FC088EC90E09C838B838B819C81019756
:1019F000F1F79C838B838D819E8101979E838D83DC
:101A00008D819E81009769F714C06F8178858985E3
:101A10009A850E944900DC01CB019E838D838D81D4
:101A20009E819A83898389819A810197F1F79A83AC
:101A30008983E9960FB6F894DEBF0FBECDBFCF9174
:101A4000DF910895DF93CF93CDB7DEB7E9970FB657
:101A5000F894DEBF0FBECDBF89AF82E066E041E003
:101A60000E94440880E090E0A0E8BFE38DAB9EAB0D
:101A7000AFABB8AF6DA97EA98FA998AD20E030E0DB
:101A80004AEF54E40E941F02DC01CB0189AB9AAB00
:101A9000ABABBCAB69A97AA98BA99CA920E030E0CB
:101AA00040E85FE30E94790388232CF481E090E012
:101AB00098AB8FA73FC069A97AA98BA99CA920E000
:101AC0003FEF4FE757E40E94190318164CF56DA934
:101AD0007EA98FA998AD20E030E040E251E40E9459
:101AE0001F02DC01CB01BC01CD010E944900DC01D9
:101AF000CB0198AB8FA70FC088EC90E09EA78DA775
:101B00008DA59EA50197F1F79EA78DA78FA598A9F2
:101B1000019798AB8FA78FA598A9009769F714C074
:101B200069A97AA98BA99CA90E944900DC01CB0173
:101B300098AB8FA78FA598A99CA78BA78BA59CA5D1
:101B40000197F1F79CA78BA782E067E041E00E9434
:101B5000440880E090E0A0E8BFE38FA398A7A9A77E
:101B6000BAA76FA178A589A59AA520E030E04AEF31
:101B700054E40E941F02DC01CB018BA39CA3ADA304
:101B8000BEA36BA17CA18DA19EA120E030E040E826
:101B90005FE30E94790388232CF481E090E09AA30C
:101BA00089A33FC06BA17CA18DA19EA120E03FEF46
:101BB0004FE757E40E94190318164CF56FA178A55A
:101BC00089A59AA520E030E040E251E40E941F027E
:101BD000DC01CB01BC01CD010E944900DC01CB013D
:101BE0009AA389A30FC088EC90E098A38F8F8F8D64
:101BF00098A10197F1F798A38F8F89A19AA10197D6
:101C00009AA389A389A19AA1009769F714C06BA12F
:101C10007CA18DA19EA10E944900DC01CB019AA369
:101C200089A389A19AA19E8F8D8F8D8D9E8D0197FD
:101C3000F1F79E8F8D8F80E069AD0E940E0A80E0E3
:101C400090E0A0E8BFE3898F9A8FAB8FBC8F698D3E
:101C50007A8D8B8D9C8D20E030E04AEF54E40E9419
:101C60001F02DC01CB018D8B9E8BAF8BB88F6D89F2
:101C70007E898F89988D20E030E040E85FE30E9404
:101C8000790388232CF481E090E09C8B8B8B3FC000
:101C90006D897E898F89988D20E03FEF4FE757E46B
:101CA0000E94190318164CF5698D7A8D8B8D9C8DC9
:101CB00020E030E040E251E40E941F02DC01CB0151
:101CC000BC01CD010E944900DC01CB019C8B8B8BB8
:101CD0000FC088EC90E09A8B898B89899A8901974B
:101CE000F1F79A8B898B8B899C8901979C8B8B8BC5
:101CF0008B899C89009769F714C06D897E898F89CB
:101D0000988D0E944900DC01CB019C8B8B8B8B89C9
:101D10009C89988B8F878F8598890197F1F7988B8D
:101D20008F8782E067E040E00E94440880E090E016
:101D3000A0E8BFE38B879C87AD87BE876B857C85DA
:101D40008D859E8520E030E04AEF54E40E941F021A
:101D5000DC01CB018F839887A987BA876F8178854B
:101D600089859A8520E030E040E85FE30E947903AE
:101D700088232CF481E090E09E838D833FC06F81A7
:101D8000788589859A8520E03FEF4FE757E40E94E8
:101D9000190318164CF56B857C858D859E8520E092
:101DA00030E040E251E40E941F02DC01CB01BC01A3
:101DB000CD010E944900DC01CB019E838D830FC0C1
:101DC00088EC90E09C838B838B819C810197F1F759
:101DD0009C838B838D819E8101979E838D838D81D2
:101DE0009E81009769F714C06F81788589859A85EF
:101DF0000E944900DC01CB019E838D838D819E81F1
:101E00009A83898389819A810197F1F79A838983DB
:101E1000E9960FB6F894DEBF0FBECDBFCF91DF912C
:101E20000895DF93CF9300D00F92CDB7DEB79B8399
:101E30008A8319820EC08981282F30E08A819B8194
:101E4000FC01E20FF31F80810E94220D89818F5FC8
:101E500089838981282F30E08A819B81FC01E20FF0
:101E6000F31F8081882339F70F900F900F90CF9147
:101E7000DF910895DF93CF9300D000D00F92CDB7BC
:101E8000DEB78A836B838A81282F30E03D832C83E1
:101E90008C819D8181309105C1F02C813D81223062
:101EA00031052CF48C819D81009761F019C02C8143
:101EB0003D812230310569F08C819D81833091050F
:101EC00061F00EC08B8189830BC08B81805C89831C
:101ED00007C08B81805F898303C08B81805B89838E
:101EE000898180680E94330B0F900F900F900F90A4
:101EF0000F90CF91DF910895DF93CF9300D000D062
:101F0000CDB7DEB789836A835C834B8389816A811D
:101F10000E943A0F8B819C810E94110F0F900F90AD
:101F20000F900F90CF91DF910895DF93CF93CDB7AE
:101F3000DEB781E00E94330BCF91DF910895DF93EC
:101F4000CF93CDB7DEB762970FB6F894DEBF0FBE62
:101F5000CDBF9A8B898B89899A899E012F5F3F4FCC
:101F6000B9014AE050E00E940D1CCE0101960E948A
:101F7000110F62960FB6F894DEBF0FBECDBFCF91A2
:101F8000DF910895DF93CF930F92CDB7DEB78983AA
:101F900020E630E0898160E0A9010E947C0F0F906B
:101FA000CF91DF910895DF93CF9300D000D00F92AF
:101FB000CDB7DEB79C838B836D838D81883020F510
:101FC0008D81882F90E0880F991F880F991F880FA7
:101FD000991F8A838A8180640E94330B19820EC004
:101FE0008981282F30E08B819C81FC01E20FF31F57
:101FF00080810E94220D89818F5F89838981883049
:1020000078F380E80E94330B0F900F900F900F90A1
:102010000F90CF91DF910895DF93CF9300D00F926F
:10202000CDB7DEB789836A834B838A816B810E9437
:102030003A0F89810E94220D0F900F900F90CF913F
:10204000DF910895DF93CF93CDB7DEB760970FB6DA
:10205000F894DEBF0FBECDBF81E060E040E00E949B
:10206000590781E061E040E00E94590781E062E0A9
:1020700040E00E94590781E063E040E00E94590778
:1020800081E064E040E00E94590781E065E040E0C3
:102090000E94590781E066E040E00E94590781E014
:1020A00067E040E00E9459071F86AFC081E06F855E
:1020B00041E00E94590781E06F8540E00E9444089A
:1020C000188A26C08889982F9C5F81E0692F0E941A
:1020D0002F098823D1F48F85482F50E08889282F35
:1020E00030E0CA01880F991F880F991F820F931F34
:1020F000FC01EB5AFE4F808160960FB6F894DEBF6C
:102100000FBECDBFCF91DF91089588898F5F888BF7
:1021100088898430B8F281E06F8540E00E945907D9
:1021200080E090E0A0EAB0E48B879C87AD87BE8713
:102130006B857C858D859E8520E030E04AEF54E4F8
:102140000E941F02DC01CB018F839887A987BA8781
:102150006F81788589859A8520E030E040E85FE3EB
:102160000E94790388232CF481E090E09E838D8384
:102170003FC06F81788589859A8520E03FEF4FE7E2
:1021800057E40E94190318164CF56B857C858D85E4
:102190009E8520E030E040E251E40E941F02DC0115
:1021A000CB01BC01CD010E944900DC01CB019E8323
:1021B0008D830FC088EC90E09C838B838B819C8106
:1021C0000197F1F79C838B838D819E8101979E837C
:1021D0008D838D819E81009769F714C06F8178850A
:1021E00089859A850E944900DC01CB019E838D83FD
:1021F0008D819E819A83898389819A810197F1F7E4
:102200009A8389838F858F5F8F878F85843008F4C9
:102210004DCF4ACF0F931F93DF93CF93CDB7DEB748
:10222000CC59D0400FB6F894DEBF0FBECDBFFE0133
:10223000EE57FF4F1082FE01EF57FF4F1082FE0155
:10224000E058FF4F81E08083FE01E158FF4F10828C
:10225000CE018D579F4FCD56DF4F99838883C35949
:10226000D04022E731E0CB56DF4F39832883C55970
:10227000D04037E0C956DF4F3883C759D040CB56DE
:10228000DF4FE881F981C559D0400080CB56DF4F40
:1022900028813981C559D0402F5F3F4FCB56DF4F42
:1022A00039832883C559D040CD56DF4FE881F98165
:1022B000C359D0400082CD56DF4F28813981C359A0
:1022C000D0402F5F3F4FCD56DF4F39832883C3590E
:1022D000D040C956DF4F3881C759D0403150C95618
:1022E000DF4F3883C759D040C956DF4F8881C7595F
:1022F000D040882321F6CE0186579F4FC856DF4F26
:1023000099838883C859D040EBE6F1E0C656DF4F89
:10231000F983E883CA59D040F7E0C456DF4FF88309
:10232000CC59D040C656DF4FE881F981CA59D04018
:102330000080C656DF4F28813981CA59D0402F5FAF
:102340003F4FC656DF4F39832883CA59D040C856FD
:10235000DF4FE881F981C859D0400082C856DF4F6D
:1023600028813981C859D0402F5F3F4FC856DF4F71
:1023700039832883C859D040C456DF4F3881CC599F
:10238000D0403150C456DF4F3883CC59D040C4566A
:10239000DF4F8881CC59D040882321F6AFE5B0E0EB
:1023A000EFE5F0E0808180688C930E94970ACE016F
:1023B00086579F4F0E94A30584E599E10E94470735
:1023C000CE018D579F4F60E00E94D30F81E790E0D0
:1023D0000E94110F81E060E00E943A0F82E890E0D5
:1023E0000E94110F80E061E04BE00E940C10FE01A2
:1023F000E558FF4F80E090E0AAEFB4E4808391833A
:10240000A283B3838E0109581F4FFE01E558FF4F89
:10241000608171818281938120E030E04AEF54E451
:102420000E941F02DC01CB01F80180839183A2830B
:10243000B383FE01E958FF4F6081718182819381EE
:1024400020E030E040E85FE30E947903882344F411
:10245000FE01EB58FF4F81E090E09183808364C0E0
:10246000FE01E958FF4F608171818281938120E0F4
:102470003FEF4FE757E40E94190318160CF043C0D2
:10248000FE01E558FF4F608171818281938120E0D8
:1024900030E040E251E40E941F02DC01CB018E01DA
:1024A0000B581F4FBC01CD010E944900DC01CB013C
:1024B000F801918380831FC0FE01ED58FF4F88EC27
:1024C00090E091838083FE01ED58FF4F80819181E0
:1024D0000197F1F7FE01ED58FF4F91838083DE01F4
:1024E000AB58BF4FFE01EB58FF4F808191810197A0
:1024F00011969C938E93FE01EB58FF4F8081918142
:102500000097D1F627C08E010B581F4FFE01E958E6
:10251000FF4F60817181828193810E944900DC01BB
:10252000CB01F80191838083DE01AF58BF4FFE01DC
:10253000EB58FF4F808191818D939C93FE01EF5862
:10254000FF4F808191810197F1F7FE01EF58FF4F16
:10255000918380838CE40E94F7050E940E068D34DF
:1025600029F4FE01E158FF4F81E08083FE01E1582C
:10257000FF4F8081882309F44FC4FE01EE57FF4FBF
:1025800010820E94950F23E930E080E060E0A9010D
:102590000E947C0F21EA30E081E060E0A9010E9406
:1025A0007C0F0E942210282F30E0CF56DF4F398356
:1025B0002883C159D040CF56DF4F88819981C159B6
:1025C000D0408B32910559F0CF56DF4FE881F98129
:1025D000C159D040ED32F10509F409C2C7CFFE015F
:1025E000EF57FF4F10820E94950F81EB90E00E9401
:1025F000110F81E060E00E943A0F81EC90E00E94B0
:10260000110F86E40E94F7050E946D1A8EE791E093
:102610000E94B518FE01E359FF4F80E090E0A0E76B
:10262000B1E480839183A283B3838E0107591F4F46
:10263000FE01E359FF4F608171818281938120E027
:1026400030E04AEF54E40E941F02DC01CB01F801A4
:1026500080839183A283B383FE01E759FF4F60819A
:1026600071818281938120E030E040E85FE30E9445
:102670007903882344F4FE01E959FF4F81E090E09B
:102680009183808364C0FE01E759FF4F60817181AF
:102690008281938120E03FEF4FE757E40E941903C6
:1026A00018160CF043C0FE01E359FF4F60817181A1
:1026B0008281938120E030E040E251E40E941F02D9
:1026C000DC01CB018E0109591F4FBC01CD010E94D5
:1026D0004900DC01CB01F801918380831FC0FE011A
:1026E000EB59FF4F88EC90E091838083FE01EB591A
:1026F000FF4F808191810197F1F7FE01EB59FF4F68
:1027000091838083DE01A959BF4FFE01E959FF4F34
:1027100080819181019711969C938E93FE01E959D6
:10272000FF4F808191810097D1F627C08E01095912
:102730001F4FFE01E759FF4F6081718182819381B4
:102740000E944900DC01CB01F80191838083DE0106
:10275000AD59BF4FFE01E959FF4F808191818D93A3
:102760009C93FE01ED59FF4F808191810197F1F714
:10277000FE01ED59FF4F918380830E940E0689343C
:1027800009F044C0FE01EF57FF4F81E0808387E4EA
:102790000E94F70585E691E00E94EF060E94950FE2
:1027A00027EC30E080E060E0A9010E947C0F80917E
:1027B0007C018F30E1F710927C010E94390785E699
:1027C00091E00E94EF0624ED30E080E060E0A90196
:1027D0000E947C0F80917C018330E1F710927C0194
:1027E0000E94390785E691E00E94EF0621EE30E075
:1027F00080E060E0A9010E947C0F80917C018F3015
:10280000E1F710927C010E943907D7C0DE01AE5774
:10281000BF4FFE01EE57FF4F80818F5F8C930E9468
:10282000950F8EEE90E00E94110F81E060E00E9413
:102830003A0F8EEF90E00E94110FFE01EE57FF4F0E
:102840008081282F30E083E090E0821B930B0E9470
:102850009F0FFE01E15AFF4F80E090E0AAEFB4E441
:1028600080839183A283B3838E01055A1F4FFE019B
:10287000E15AFF4F608171818281938120E030E0D5
:102880004AEF54E40E941F02DC01CB01F80180836F
:102890009183A283B383FE01E55AFF4F608171816A
:1028A0008281938120E030E040E85FE30E94790379
:1028B000882344F4FE01E75AFF4F81E090E09183C2
:1028C000808364C0FE01E55AFF4F6081718182817F
:1028D000938120E03FEF4FE757E40E941903181659
:1028E0000CF043C0FE01E15AFF4F6081718182818B
:1028F000938120E030E040E251E40E941F02DC01BD
:10290000CB018E01075A1F4FBC01CD010E94490027
:10291000DC01CB01F801918380831FC0FE01E95ADD
:10292000FF4F88EC90E091838083FE01E95AFF4FCE
:10293000808191810197F1F7FE01E95AFF4F918360
:102940008083DE01A75ABF4FFE01E75AFF4F808107
:102950009181019711969C938E93FE01E75AFF4F48
:10296000808191810097D1F628C08E01075A1F4FB0
:10297000FE01E55AFF4F60817181828193810E943F
:102980004900DC01CB01F80191838083DE01AB5A61
:10299000BF4FFE01E75AFF4F8081918111969C93B2
:1029A0008E93FE01EB5AFF4F808191810197F1F7E1
:1029B000FE01EB5AFF4F91838083FE01EE57FF4FDC
:1029C0008081833038F4FE01EF57FF4F80818823E8
:1029D00009F405CEFE01EF57FF4F8081882309F0EF
:1029E000C5CD8BE40E94F7050E946019BFCDFE01A2
:1029F000EF57FF4F10820E94950F81EB90E00E94ED
:102A0000110F81E060E00E943A0F81EC90E00E949B
:102A1000110FFE01E058FF4F81E08083FE01EF5A65
:102A2000FF4F80E090E0AAEFB3E480839183A2831C
:102A3000B3838E01035B1F4FFE01EF5AFF4F60818E
:102A400071818281938120E030E04AEF54E40E945A
:102A50001F02DC01CB01F80180839183A283B38341
:102A6000FE01E35BFF4F608171818281938120E0F1
:102A700030E040E85FE30E947903882344F4FE01DC
:102A8000E55BFF4F81E090E09183808364C0FE01AD
:102A9000E35BFF4F608171818281938120E03FEF92
:102AA0004FE757E40E94190318160CF043C0FE01CB
:102AB000EF5AFF4F608171818281938120E030E085
:102AC00040E251E40E941F02DC01CB018E01055B54
:102AD0001F4FBC01CD010E944900DC01CB01F80170
:102AE000918380831FC0FE01E75BFF4F88EC90E07D
:102AF00091838083FE01E75BFF4F80819181019785
:102B0000F1F7FE01E75BFF4F91838083DE01A55B58
:102B1000BF4FFE01E55BFF4F8081918101971196C8
:102B20009C938E93FE01E55BFF4F8081918100971E
:102B3000D1F627C08E01055B1F4FFE01E35BFF4FFF
:102B400060817181828193810E944900DC01CB0107
:102B5000F80191838083DE01A95BBF4FFE01E55B35
:102B6000FF4F808191818D939C93FE01E95BFF4F24
:102B7000808191810197F1F7FE01E95BFF4F91831D
:102B8000808386E40E94F7050E946D1A8EE791E02B
:102B90000E94B518FE01ED5BFF4F80E090E0A0E7DA
:102BA000B1E480839183A283B3838E01015C1F4FC4
:102BB000FE01ED5BFF4F608171818281938120E096
:102BC00030E04AEF54E40E941F02DC01CB01F8011F
:102BD00080839183A283B383FE01FF96608171811C
:102BE0008281938120E030E040E85FE30E94790336
:102BF00088232CF481E090E09EAF8DAF46C0FE01AB
:102C0000FF96608171818281938120E03FEF4FE7E1
:102C100057E40E941903181664F5FE01ED5BFF4F9F
:102C2000608171818281938120E030E040E251E453
:102C30000E941F02DC01CB01BC01CD010E944900B2
:102C4000DC01CB019EAF8DAF0FC088EC90E09CAF54
:102C50008BAF8BAD9CAD0197F1F79CAF8BAF8DAD7A
:102C60009EAD01979EAF8DAF8DAD9EAD009769F77C
:102C700016C0FE01FF9660817181828193810E945E
:102C80004900DC01CB019EAF8DAF8DAD9EAD9AAFFB
:102C900089AF89AD9AAD0197F1F79AAF89AF0E94DC
:102CA0000E06893451F4FE01E158FF4F1082FE01F7
:102CB000EF57FF4F81E0808395C0DE01AE57BF4FD5
:102CC000FE01EE57FF4F80818F5F8C930E94950F1E
:102CD0008EEE90E00E94110F81E060E00E943A0FBA
:102CE0008EEF90E00E94110FFE01EE57FF4F8081A2
:102CF000282F30E083E090E0821B930B0E949F0F0F
:102D000080E090E0AAEFB4E48DAB9EABAFABB8AF80
:102D10006DA97EA98FA998AD20E030E04AEF54E478
:102D20000E941F02DC01CB0189AB9AABABABBCAB01
:102D300069A97AA98BA99CA920E030E040E85FE36B
:102D40000E94790388232CF481E090E098AB8FA750
:102D50003FC069A97AA98BA99CA920E03FEF4FE762
:102D600057E40E94190318164CF56DA97EA98FA986
:102D700098AD20E030E040E251E40E941F02DC0107
:102D8000CB01BC01CD010E944900DC01CB0198AB15
:102D90008FA70FC088EC90E09EA78DA78DA59EA55C
:102DA0000197F1F79EA78DA78FA598A9019798ABDA
:102DB0008FA78FA598A9009769F714C069A97AA968
:102DC0008BA99CA90E944900DC01CB0198AB8FA77D
:102DD0008FA598A99CA78BA78BA59CA50197F1F718
:102DE0009CA78BA7FE01EE57FF4F8081833038F4FC
:102DF000FE01EF57FF4F8081882309F4F8CDFE01D3
:102E0000EF57FF4F8081882309F0B0CB8BE40E94FD
:102E1000F7050E946019AACB0E94950F8DE091E002
:102E20000E94110F81E060E00E943A0F81EC90E077
:102E30000E94110FFE01E058FF4F81E0808381E482
:102E40000E94F7050E946D1A8EE791E00E94B51866
:102E50000E94950F8DE191E00E94110F81E060E0EA
:102E60000E943A0F81EC90E00E94110F80E090E008
:102E7000A0E7B1E48FA398A7A9A7BAA76FA178A5E7
:102E800089A59AA520E030E04AEF54E40E941F0291
:102E9000DC01CB018BA39CA3ADA3BEA36BA17CA142
:102EA0008DA19EA120E030E040E85FE30E9479031D
:102EB00088232CF481E090E09AA389A33FC06BA102
:102EC0007CA18DA19EA120E03FEF4FE757E40E9437
:102ED000190318164CF56FA178A589A59AA520E0CD
:102EE00030E040E251E40E941F02DC01CB01BC0152
:102EF000CD010E944900DC01CB019AA389A30FC038
:102F000088EC90E098A38F8F8F8D98A10197F1F7AF
:102F100098A38F8F89A19AA101979AA389A389A1C8
:102F20009AA1009769F714C06BA17CA18DA19EA105
:102F30000E944900DC01CB019AA389A389A19AA12F
:102F40009E8F8D8F8D8D9E8D0197F1F79E8F8D8F2A
:102F500082E40E94F7050E946D1A8EE791E00E94BC
:102F6000B51880E090E0A0E7B1E4898F9A8FAB8F2D
:102F7000BC8F698D7A8D8B8D9C8D20E030E04AEF7F
:102F800054E40E941F02DC01CB018D8B9E8BAF8B22
:102F9000B88F6D897E898F89988D20E030E040E878
:102FA0005FE30E94790388232CF481E090E09C8BFE
:102FB0008B8B3FC06D897E898F89988D20E03FEF94
:102FC0004FE757E40E94190318164CF5698D7A8D66
:102FD0008B8D9C8D20E030E040E251E40E941F0286
:102FE000DC01CB01BC01CD010E944900DC01CB0119
:102FF0009C8B8B8B0FC088EC90E09A8B898B898996
:103000009A890197F1F79A8B898B8B899C89019713
:103010009C8B8B8B8B899C89009769F714C06D8979
:103020007E898F89988D0E944900DC01CB019C8BA1
:103030008B8B8B899C89988B8F878F85988901973B
:10304000F1F7988B8F8783E40E94F7050E940E06A4
:10305000FE01E058FF4F8083FE01E058FF4F808162
:10306000843451F4FE01E158FF4F81E08083FE017A
:10307000E058FF4F10827ACA0E94950F8CE291E0CF
:103080000E94110F80E090E0AAE7B4E48B879C8750
:10309000AD87BE876B857C858D859E8520E030E081
:1030A0004AEF54E40E941F02DC01CB018F83988712
:1030B000A987BA876F81788589859A8520E030E075
:1030C00040E85FE30E94790388232CF481E090E0DC
:1030D0009E838D833FC06F81788589859A8520E0A6
:1030E0003FEF4FE757E40E94190318164CF56B8524
:1030F0007C858D859E8520E030E040E251E40E9491
:103100001F02DC01CB01BC01CD010E944900DC01A2
:10311000CB019E838D830FC088EC90E09C838B83D2
:103120008B819C810197F1F79C838B838D819E819C
:1031300001979E838D838D819E81009769F716CAC2
:103140006F81788589859A850E944900DC01CB01D1
:103150009E838D838D819E819A83898389819A81C3
:103160000197F1F79A83898301CADF93CF93CDB793
:10317000DEB762970FB6F894DEBF0FBECDBF9A8B55
:10318000898B188A1F8681C02F85388989899A89F9
:10319000FC01E20FF31F80810E94F70580E090E0C0
:1031A000A0E7B1E48B879C87AD87BE876B857C8564
:1031B0008D859E8520E030E04AEF54E40E941F0296
:1031C000DC01CB018F839887A987BA876F817885C7
:1031D00089859A8520E030E040E85FE30E9479032A
:1031E00088232CF481E090E09E838D833FC06F8123
:1031F000788589859A8520E03FEF4FE757E40E9464
:10320000190318164CF56B857C858D859E8520E00D
:1032100030E040E251E40E941F02DC01CB01BC011E
:10322000CD010E944900DC01CB019E838D830FC03C
:1032300088EC90E09C838B838B819C810197F1F7D4
:103240009C838B838D819E8101979E838D838D814D
:103250009E81009769F714C06F81788589859A856A
:103260000E944900DC01CB019E838D838D819E816C
:103270009A83898389819A810197F1F79A83898357
:103280008F8598890196988B8F878F85988985304F
:1032900091050CF479CF62960FB6F894DEBF0FBE9D
:1032A000CDBFCF91DF910895DF93CF93CDB7DEB738
:1032B00080917C018F5F80937C01CF91DF91089595
:1032C000DF93CF93CDB7DEB76C970FB6F894DEBF20
:1032D0000FBECDBF0E94950F85E691E00E94EF06DC
:1032E000EAC08CE391E00E94110F80E090E0AAEF29
:1032F000B3E4898F9A8FAB8FBC8F698D7A8D8B8D5C
:103300009C8D20E030E04AEF54E40E941F02DC0173
:10331000CB018D8B9E8BAF8BB88F6D897E898F890A
:10332000988D20E030E040E85FE30E947903882335
:103330002CF481E090E09C8B8B8B3FC06D897E8963
:103340008F89988D20E03FEF4FE757E40E941903E3
:1033500018164CF5698D7A8D8B8D9C8D20E030E0B0
:1033600040E251E40E941F02DC01CB01BC01CD010F
:103370000E944900DC01CB019C8B8B8B0FC088EC39
:1033800090E09A8B898B89899A890197F1F79A8BBA
:10339000898B8B899C8901979C8B8B8B8B899C89D2
:1033A000009769F714C06D897E898F89988D0E9476
:1033B0004900DC01CB019C8B8B8B8B899C89988B82
:1033C0008F878F8598890197F1F7988B8F870E9457
:1033D000950F80E090E0AAEFB3E48B879C87AD87E0
:1033E000BE876B857C858D859E8520E030E04AEF29
:1033F00054E40E941F02DC01CB018F839887A987C8
:10340000BA876F81788589859A8520E030E040E829
:103410005FE30E94790388232CF481E090E09E838F
:103420008D833FC06F81788589859A8520E03FEF45
:103430004FE757E40E94190318164CF56B857C85FD
:103440008D859E8520E030E040E251E40E941F021D
:10345000DC01CB01BC01CD010E944900DC01CB01A4
:103460009E838D830FC088EC90E09C838B838B813F
:103470009C810197F1F79C838B838D819E810197BD
:103480009E838D838D819E81009769F714C06F8123
:10349000788589859A850E944900DC01CB019E834D
:1034A0008D838D819E819A83898389819A810197F9
:1034B000F1F79A83898380917C018C3309F011CFD5
:1034C00010927C010E9439076C960FB6F894DEBF0B
:1034D0000FBECDBFCF91DF9108950F931F93DF9360
:1034E000CF93CDB7DEB76C970FB6F894DEBF0FBEA3
:1034F000CDBF10927D0124C180917D01082F10E085
:103500000E942210F801E258FE4F808380917D01D5
:10351000882F90E0FC01E258FE4F8081803308F450
:1035200093C080917D01882F90E0FC01E258FE4F0E
:1035300080818A3308F088C080917D01882F90E0D7
:10354000FC01E258FE4F80810E94220D80E090E055
:10355000AAEFB3E4898F9A8FAB8FBC8F698D7A8D78
:103560008B8D9C8D20E030E04AEF54E40E941F02D6
:10357000DC01CB018D8B9E8BAF8BB88F6D897E89E3
:103580008F89988D20E030E040E85FE30E94790366
:1035900088232CF481E090E09C8B8B8B3FC06D895D
:1035A0007E898F89988D20E03FEF4FE757E40E9496
:1035B000190318164CF5698D7A8D8B8D9C8D20E042
:1035C00030E040E251E40E941F02DC01CB01BC016B
:1035D000CD010E944900DC01CB019C8B8B8B0FC07D
:1035E00088EC90E09A8B898B89899A890197F1F709
:1035F0009A8B898B8B899C8901979C8B8B8B8B8970
:103600009C89009769F714C06D897E898F89988D90
:103610000E944900DC01CB019C8B8B8B8B899C89A0
:10362000988B8F878F8598890197F1F7988B8F8773
:1036300080917D01982F9B5F81E0692F0E943A0F56
:103640008AE20E94220D05C080917D018150809305
:103650007D0180E090E0A0E7B1E48B879C87AD8797
:10366000BE876B857C858D859E8520E030E04AEFA6
:1036700054E40E941F02DC01CB018F839887A98745
:10368000BA876F81788589859A8520E030E040E8A7
:103690005FE30E94790388232CF481E090E09E830D
:1036A0008D833FC06F81788589859A8520E03FEFC3
:1036B0004FE757E40E94190318164CF56B857C857B
:1036C0008D859E8520E030E040E251E40E941F029B
:1036D000DC01CB01BC01CD010E944900DC01CB0122
:1036E0009E838D830FC088EC90E09C838B838B81BD
:1036F0009C810197F1F79C838B838D819E8101973B
:103700009E838D838D819E81009769F714C06F81A0
:10371000788589859A850E944900DC01CB019E83CA
:103720008D838D819E819A83898389819A81019776
:10373000F1F79A83898380917D018F5F80937D016A
:1037400080917D01853008F4D7CE0E9422108D3300
:10375000E1F76C960FB6F894DEBF0FBECDBFCF91E8
:10376000DF911F910F910895A1E21A2EAA1BBB1B96
:10377000FD010DC0AA1FBB1FEE1FFF1FA217B3073D
:10378000E407F50720F0A21BB30BE40BF50B661F53
:10379000771F881F991F1A9469F760957095809517
:1037A00090959B01AC01BD01CF0108952F923F92EE
:1037B0004F925F926F927F928F929F92AF92BF9241
:1037C000CF92DF92EF92FF920F931F93CF93DF93ED
:1037D000CDB7DEB7CA1BDB0B0FB6F894DEBF0FBE4A
:1037E000CDBF09942A88398848885F846E847D8497
:1037F0008C849B84AA84B984C884DF80EE80FD8099
:103800000C811B81AA81B981CE0FD11D0FB6F8940E
:10381000DEBF0FBECDBFED010895FB019F01E8940F
:103820004230C4F04532B4F44A3029F497FB1EF418
:10383000909581959F4F642F77270E943E1C805D55
:103840008A330CF0895D8193CB010097A1F716F4C0
:103850005DE251931082C9010C942E1CDC01FC0125
:10386000672F71917723E1F7329704C07C916D93B4
:1038700070836291AE17BF07C8F30895AA1BBB1BE4
:1038800051E107C0AA1FBB1FA617B70710F0A61B60
:10389000B70B881F991F5A95A9F780959095BC0181
:0838A000CD010895F894FFCF5B
:1038A8002020202020202020202020202020202010
:1038B80000202020444F4F52204C4F434B4552206C
:1038C80020002020202053595354454D20202020EB
:1038D8002020002B203A204F70656E20446F6F72B5
:1038E800002D203A204368616E676520506173732C
:1038F80000456E7465722050617373776F72643A15
:1039080000202020202000556E6C6F636B696E6765
:103918002E2E2E00486F6C64696E672E2E2E202086
:10392800004C6F636B696E672E2E2E202000577235
:103938006F6E672050617373776F726421005472E1
:103948006965732052656D61696E3A2000456E7431
:103958006572204E657720506173733A0052652D69
:10396800456E74657220506173733A0020202055AB
:103978006E6D61746368656421202000202020201A
:103988005741524E494E4721202020200000000078
:1039980000000000003738392F343536783132339B
:1039A8002D4E303D2B0000127A08040600008025B9
:0A39B80000000E11111F1B1B1F0061
:00000001FF
